{
  "contractName": "BeerFridge",
  "abi": [
    {
      "inputs": [],
      "payable": false,
      "stateMutability": "nonpayable",
      "type": "constructor"
    },
    {
      "constant": true,
      "inputs": [],
      "name": "get_balance",
      "outputs": [
        {
          "name": "",
          "type": "uint256"
        }
      ],
      "payable": false,
      "stateMutability": "view",
      "type": "function"
    },
    {
      "constant": false,
      "inputs": [
        {
          "name": "_seller",
          "type": "address"
        },
        {
          "name": "_beer_ammount",
          "type": "uint8"
        }
      ],
      "name": "sell_beer",
      "outputs": [],
      "payable": false,
      "stateMutability": "nonpayable",
      "type": "function"
    },
    {
      "constant": false,
      "inputs": [
        {
          "name": "_beer_count",
          "type": "uint8"
        }
      ],
      "name": "set_beer_count_debug",
      "outputs": [],
      "payable": false,
      "stateMutability": "nonpayable",
      "type": "function"
    },
    {
      "constant": true,
      "inputs": [],
      "name": "display_beer_ammount",
      "outputs": [
        {
          "name": "",
          "type": "uint8"
        }
      ],
      "payable": false,
      "stateMutability": "view",
      "type": "function"
    },
    {
      "constant": true,
      "inputs": [],
      "name": "display_beerfridge_message",
      "outputs": [
        {
          "name": "",
          "type": "string"
        }
      ],
      "payable": false,
      "stateMutability": "view",
      "type": "function"
    }
  ],
  "bytecode": "0x608060405234801561001057600080fd5b5060146000806101000a81548160ff021916908360ff16021790555033600060016101000a81548173ffffffffffffffffffffffffffffffffffffffff021916908373ffffffffffffffffffffffffffffffffffffffff1602179055506040805190810160405280601181526020017f68656c6c6f206265657220667269646765000000000000000000000000000000815250600190805190602001906100b89291906100be565b50610163565b828054600181600116156101000203166002900490600052602060002090601f016020900481019282601f106100ff57805160ff191683800117855561012d565b8280016001018555821561012d579182015b8281111561012c578251825591602001919060010190610111565b5b50905061013a919061013e565b5090565b61016091905b8082111561015c576000816000905550600101610144565b5090565b90565b61032e806101726000396000f30060806040526004361061006d576000357c0100000000000000000000000000000000000000000000000000000000900463ffffffff16806335b122de146100725780633fa1d18c146100a35780636b191370146100f35780639f26d50214610183578063c1cfb99a146101b3575b600080fd5b34801561007e57600080fd5b506100876101de565b604051808260ff1660ff16815260200191505060405180910390f35b3480156100af57600080fd5b506100f1600480360381019080803573ffffffffffffffffffffffffffffffffffffffff169060200190929190803560ff1690602001909291905050506101f4565b005b3480156100ff57600080fd5b50610108610224565b6040518080602001828103825283818151815260200191508051906020019080838360005b8381101561014857808201518184015260208101905061012d565b50505050905090810190601f1680156101755780820380516001836020036101000a031916815260200191505b509250505060405180910390f35b34801561018f57600080fd5b506101b1600480360381019080803560ff1690602001909291905050506102c6565b005b3480156101bf57600080fd5b506101c86102e3565b6040518082815260200191505060405180910390f35b60008060009054906101000a900460ff16905090565b806000808282829054906101000a900460ff160192506101000a81548160ff021916908360ff1602179055505050565b606060018054600181600116156101000203166002900480601f0160208091040260200160405190810160405280929190818152602001828054600181600116156101000203166002900480156102bc5780601f10610291576101008083540402835291602001916102bc565b820191906000526020600020905b81548152906001019060200180831161029f57829003601f168201915b5050505050905090565b806000806101000a81548160ff021916908360ff16021790555050565b60003073ffffffffffffffffffffffffffffffffffffffff16319050905600a165627a7a723058204f7388563d6d35a5fc57b9855bcf0f10adb19c052b7406a68c3f9326dcd77b060029",
  "source": "pragma solidity ^0.4.25;\n\ncontract BeerFridge {\n  uint8 beer_count;\n  address owner;\n  string message;\n\n  constructor() public {\n    beer_count = 20;\n    owner = msg.sender;\n    message =\"hello beer fridge\";\n  }\n\n  function get_balance() public view returns(uint256) {\n    return address(this).balance;\n  }\n\n  function sell_beer(address _seller, uint8 _beer_ammount) public {\n    beer_count += _beer_ammount;\n    //add functionality to pay seller\n  }\n\n  // TODO: remove this method before any public release - it's for debugging\n  function set_beer_count_debug(uint8 _beer_count) public {\n    beer_count = _beer_count;\n  }\n\n  function display_beer_ammount() public view returns(uint8) {\n    return beer_count;\n  }\n\n  function display_beerfridge_message() public view returns(string) {\n    return message;\n  }\n\n}\n",
  "sourcePath": "/Users/louis/src/trufflereact16.9/contracts/BeerFridge.sol",
  "compiler": {
    "name": "solc",
    "version": "0.4.25+commit.59dbf8f1.Emscripten.clang"
  },
  "schemaVersion": "3.0.14",
  "updatedAt": "2019-09-17T19:00:20.322Z",
  "devdoc": {
    "methods": {}
  },
  "userdoc": {
    "methods": {}
  }
}