{
  "contractName": "BeerFridge",
  "abi": [
    {
      "inputs": [],
      "payable": false,
      "stateMutability": "nonpayable",
      "type": "constructor"
    },
    {
      "constant": false,
      "inputs": [
        {
          "name": "_seller",
          "type": "address"
        },
        {
          "name": "_beer_ammount",
          "type": "uint8"
        }
      ],
      "name": "sell_beer",
      "outputs": [],
      "payable": false,
      "stateMutability": "nonpayable",
      "type": "function"
    },
    {
      "constant": true,
      "inputs": [],
      "name": "display_beer_ammount",
      "outputs": [
        {
          "name": "",
          "type": "uint8"
        }
      ],
      "payable": false,
      "stateMutability": "view",
      "type": "function"
    },
    {
      "constant": true,
      "inputs": [],
      "name": "display_beerfridge_message",
      "outputs": [
        {
          "name": "",
          "type": "string"
        }
      ],
      "payable": false,
      "stateMutability": "view",
      "type": "function"
    }
  ],
  "bytecode": "0x608060405234801561001057600080fd5b5060146000806101000a81548160ff021916908360ff16021790555033600060016101000a81548173ffffffffffffffffffffffffffffffffffffffff021916908373ffffffffffffffffffffffffffffffffffffffff160217905550601e600060156101000a81548160ff021916908360ff1602179055506040805190810160405280601181526020017f68656c6c6f206265657220667269646765000000000000000000000000000000815250600190805190602001906100d49291906100da565b5061017f565b828054600181600116156101000203166002900490600052602060002090601f016020900481019282601f1061011b57805160ff1916838001178555610149565b82800160010185558215610149579182015b8281111561014857825182559160200191906001019061012d565b5b509050610156919061015a565b5090565b61017c91905b80821115610178576000816000905550600101610160565b5090565b90565b6102818061018e6000396000f300608060405260043610610057576000357c0100000000000000000000000000000000000000000000000000000000900463ffffffff16806335b122de1461005c5780633fa1d18c1461008d5780636b191370146100dd575b600080fd5b34801561006857600080fd5b5061007161016d565b604051808260ff1660ff16815260200191505060405180910390f35b34801561009957600080fd5b506100db600480360381019080803573ffffffffffffffffffffffffffffffffffffffff169060200190929190803560ff169060200190929190505050610183565b005b3480156100e957600080fd5b506100f26101b3565b6040518080602001828103825283818151815260200191508051906020019080838360005b83811015610132578082015181840152602081019050610117565b50505050905090810190601f16801561015f5780820380516001836020036101000a031916815260200191505b509250505060405180910390f35b60008060009054906101000a900460ff16905090565b806000808282829054906101000a900460ff160192506101000a81548160ff021916908360ff1602179055505050565b606060018054600181600116156101000203166002900480601f01602080910402602001604051908101604052809291908181526020018280546001816001161561010002031660029004801561024b5780601f106102205761010080835404028352916020019161024b565b820191906000526020600020905b81548152906001019060200180831161022e57829003601f168201915b50505050509050905600a165627a7a72305820c598e0ebd10dac95fe13b5ef530ff125c944868b02ba9893ef2bf5f2d43432e50029",
  "source": "pragma solidity ^0.4.25;\n\ncontract BeerFridge {\n  uint8 beer_count;\n  address owner;\n  uint8 fridge_value;\n  string message;\n\n  constructor() public {\n    beer_count = 20;\n    owner = msg.sender;\n    fridge_value = 30;\n    message =\"hello beer fridge\";\n  }\n\n  function sell_beer(address _seller, uint8 _beer_ammount) public {\n    beer_count += _beer_ammount;\n    //add functionality to pay seller\n  }\n\n  function display_beer_ammount() public view returns(uint8) {\n    return beer_count;\n  }\n\n  function display_beerfridge_message() public view returns(string) {\n    return message;\n  }\n\n}\n",
  "sourcePath": "/home/josh/Documents/smartContracts/reactexp/contracts/BeerFridge.sol",
  "compiler": {
    "name": "solc",
    "version": "0.4.25+commit.59dbf8f1.Emscripten.clang"
  },
  "schemaVersion": "3.0.11",
  "updatedAt": "2019-09-09T20:50:42.889Z",
  "devdoc": {
    "methods": {}
  },
  "userdoc": {
    "methods": {}
  }
}